{
  "_format": "hh-sol-artifact-1",
  "contractName": "ClaimRegistry",
  "sourceName": "contracts/ClaimRegistry.sol",
  "abi": [
    {
      "inputs": [
        {
          "internalType": "address",
          "name": "initialOwner",
          "type": "address"
        }
      ],
      "stateMutability": "nonpayable",
      "type": "constructor"
    },
    {
      "inputs": [
        {
          "internalType": "address",
          "name": "owner",
          "type": "address"
        }
      ],
      "name": "OwnableInvalidOwner",
      "type": "error"
    },
    {
      "inputs": [
        {
          "internalType": "address",
          "name": "account",
          "type": "address"
        }
      ],
      "name": "OwnableUnauthorizedAccount",
      "type": "error"
    },
    {
      "inputs": [],
      "name": "ReentrancyGuardReentrantCall",
      "type": "error"
    },
    {
      "anonymous": false,
      "inputs": [
        {
          "indexed": true,
          "internalType": "uint256",
          "name": "claimId",
          "type": "uint256"
        },
        {
          "indexed": true,
          "internalType": "address",
          "name": "agent",
          "type": "address"
        },
        {
          "indexed": false,
          "internalType": "bool",
          "name": "fraudDetected",
          "type": "bool"
        }
      ],
      "name": "AIAssessmentUpdated",
      "type": "event"
    },
    {
      "anonymous": false,
      "inputs": [
        {
          "indexed": true,
          "internalType": "uint256",
          "name": "claimId",
          "type": "uint256"
        },
        {
          "indexed": false,
          "internalType": "uint256",
          "name": "approvedAmount",
          "type": "uint256"
        },
        {
          "indexed": true,
          "internalType": "address",
          "name": "approvedBy",
          "type": "address"
        }
      ],
      "name": "ClaimApproved",
      "type": "event"
    },
    {
      "anonymous": false,
      "inputs": [
        {
          "indexed": true,
          "internalType": "uint256",
          "name": "claimId",
          "type": "uint256"
        },
        {
          "indexed": false,
          "internalType": "string",
          "name": "reason",
          "type": "string"
        },
        {
          "indexed": true,
          "internalType": "address",
          "name": "rejectedBy",
          "type": "address"
        }
      ],
      "name": "ClaimRejected",
      "type": "event"
    },
    {
      "anonymous": false,
      "inputs": [
        {
          "indexed": true,
          "internalType": "uint256",
          "name": "claimId",
          "type": "uint256"
        },
        {
          "indexed": false,
          "internalType": "uint256",
          "name": "settledAmount",
          "type": "uint256"
        },
        {
          "indexed": true,
          "internalType": "address",
          "name": "claimant",
          "type": "address"
        }
      ],
      "name": "ClaimSettled",
      "type": "event"
    },
    {
      "anonymous": false,
      "inputs": [
        {
          "indexed": true,
          "internalType": "uint256",
          "name": "claimId",
          "type": "uint256"
        },
        {
          "indexed": true,
          "internalType": "address",
          "name": "claimant",
          "type": "address"
        },
        {
          "indexed": false,
          "internalType": "enum ClaimRegistry.ClaimType",
          "name": "claimType",
          "type": "uint8"
        },
        {
          "indexed": false,
          "internalType": "uint256",
          "name": "requestedAmount",
          "type": "uint256"
        }
      ],
      "name": "ClaimSubmitted",
      "type": "event"
    },
    {
      "anonymous": false,
      "inputs": [
        {
          "indexed": true,
          "internalType": "address",
          "name": "previousOwner",
          "type": "address"
        },
        {
          "indexed": true,
          "internalType": "address",
          "name": "newOwner",
          "type": "address"
        }
      ],
      "name": "OwnershipTransferred",
      "type": "event"
    },
    {
      "inputs": [
        {
          "internalType": "address",
          "name": "_agent",
          "type": "address"
        }
      ],
      "name": "addAuthorizedAgent",
      "outputs": [],
      "stateMutability": "nonpayable",
      "type": "function"
    },
    {
      "inputs": [
        {
          "internalType": "address",
          "name": "_validator",
          "type": "address"
        }
      ],
      "name": "addValidator",
      "outputs": [],
      "stateMutability": "nonpayable",
      "type": "function"
    },
    {
      "inputs": [
        {
          "internalType": "uint256",
          "name": "",
          "type": "uint256"
        }
      ],
      "name": "aiAssessments",
      "outputs": [
        {
          "internalType": "uint256",
          "name": "confidenceScore",
          "type": "uint256"
        },
        {
          "internalType": "uint256",
          "name": "riskScore",
          "type": "uint256"
        },
        {
          "internalType": "uint256",
          "name": "recommendedAmount",
          "type": "uint256"
        },
        {
          "internalType": "bool",
          "name": "fraudDetected",
          "type": "bool"
        }
      ],
      "stateMutability": "view",
      "type": "function"
    },
    {
      "inputs": [
        {
          "internalType": "uint256",
          "name": "_claimId",
          "type": "uint256"
        },
        {
          "internalType": "uint256",
          "name": "_approvedAmount",
          "type": "uint256"
        }
      ],
      "name": "approveClaim",
      "outputs": [],
      "stateMutability": "nonpayable",
      "type": "function"
    },
    {
      "inputs": [
        {
          "internalType": "address",
          "name": "",
          "type": "address"
        }
      ],
      "name": "authorizedAgents",
      "outputs": [
        {
          "internalType": "bool",
          "name": "",
          "type": "bool"
        }
      ],
      "stateMutability": "view",
      "type": "function"
    },
    {
      "inputs": [
        {
          "internalType": "uint256",
          "name": "",
          "type": "uint256"
        }
      ],
      "name": "claims",
      "outputs": [
        {
          "internalType": "uint256",
          "name": "id",
          "type": "uint256"
        },
        {
          "internalType": "address",
          "name": "claimant",
          "type": "address"
        },
        {
          "internalType": "enum ClaimRegistry.ClaimType",
          "name": "claimType",
          "type": "uint8"
        },
        {
          "internalType": "enum ClaimRegistry.ClaimStatus",
          "name": "status",
          "type": "uint8"
        },
        {
          "internalType": "uint256",
          "name": "requestedAmount",
          "type": "uint256"
        },
        {
          "internalType": "uint256",
          "name": "approvedAmount",
          "type": "uint256"
        },
        {
          "internalType": "string",
          "name": "ipfsHash",
          "type": "string"
        },
        {
          "internalType": "string",
          "name": "aiAssessmentHash",
          "type": "string"
        },
        {
          "internalType": "bool",
          "name": "fraudulent",
          "type": "bool"
        },
        {
          "internalType": "string",
          "name": "fraudReason",
          "type": "string"
        }
      ],
      "stateMutability": "view",
      "type": "function"
    },
    {
      "inputs": [],
      "name": "getCurrentClaimId",
      "outputs": [
        {
          "internalType": "uint256",
          "name": "",
          "type": "uint256"
        }
      ],
      "stateMutability": "view",
      "type": "function"
    },
    {
      "inputs": [
        {
          "internalType": "address",
          "name": "user",
          "type": "address"
        },
        {
          "internalType": "uint256",
          "name": "index",
          "type": "uint256"
        }
      ],
      "name": "getUserClaim",
      "outputs": [
        {
          "internalType": "uint256",
          "name": "",
          "type": "uint256"
        }
      ],
      "stateMutability": "view",
      "type": "function"
    },
    {
      "inputs": [
        {
          "internalType": "address",
          "name": "user",
          "type": "address"
        }
      ],
      "name": "getUserClaimsCount",
      "outputs": [
        {
          "internalType": "uint256",
          "name": "",
          "type": "uint256"
        }
      ],
      "stateMutability": "view",
      "type": "function"
    },
    {
      "inputs": [],
      "name": "owner",
      "outputs": [
        {
          "internalType": "address",
          "name": "",
          "type": "address"
        }
      ],
      "stateMutability": "view",
      "type": "function"
    },
    {
      "inputs": [
        {
          "internalType": "uint256",
          "name": "_claimId",
          "type": "uint256"
        },
        {
          "internalType": "string",
          "name": "_reason",
          "type": "string"
        }
      ],
      "name": "rejectClaim",
      "outputs": [],
      "stateMutability": "nonpayable",
      "type": "function"
    },
    {
      "inputs": [
        {
          "internalType": "address",
          "name": "_agent",
          "type": "address"
        }
      ],
      "name": "removeAuthorizedAgent",
      "outputs": [],
      "stateMutability": "nonpayable",
      "type": "function"
    },
    {
      "inputs": [
        {
          "internalType": "address",
          "name": "_validator",
          "type": "address"
        }
      ],
      "name": "removeValidator",
      "outputs": [],
      "stateMutability": "nonpayable",
      "type": "function"
    },
    {
      "inputs": [],
      "name": "renounceOwnership",
      "outputs": [],
      "stateMutability": "nonpayable",
      "type": "function"
    },
    {
      "inputs": [
        {
          "internalType": "uint256",
          "name": "_claimId",
          "type": "uint256"
        }
      ],
      "name": "settleClaim",
      "outputs": [],
      "stateMutability": "payable",
      "type": "function"
    },
    {
      "inputs": [
        {
          "internalType": "uint256",
          "name": "_claimId",
          "type": "uint256"
        },
        {
          "internalType": "address",
          "name": "_claimant",
          "type": "address"
        },
        {
          "internalType": "enum ClaimRegistry.ClaimType",
          "name": "_claimType",
          "type": "uint8"
        },
        {
          "internalType": "uint256",
          "name": "_requestedAmount",
          "type": "uint256"
        },
        {
          "internalType": "string",
          "name": "_ipfsHash",
          "type": "string"
        }
      ],
      "name": "submitClaim",
      "outputs": [
        {
          "internalType": "uint256",
          "name": "",
          "type": "uint256"
        }
      ],
      "stateMutability": "nonpayable",
      "type": "function"
    },
    {
      "inputs": [
        {
          "internalType": "address",
          "name": "newOwner",
          "type": "address"
        }
      ],
      "name": "transferOwnership",
      "outputs": [],
      "stateMutability": "nonpayable",
      "type": "function"
    },
    {
      "inputs": [
        {
          "internalType": "uint256",
          "name": "_claimId",
          "type": "uint256"
        },
        {
          "internalType": "uint256",
          "name": "_confidenceScore",
          "type": "uint256"
        },
        {
          "internalType": "uint256",
          "name": "_riskScore",
          "type": "uint256"
        },
        {
          "internalType": "uint256",
          "name": "_recommendedAmount",
          "type": "uint256"
        },
        {
          "internalType": "string[]",
          "name": "_agentReports",
          "type": "string[]"
        },
        {
          "internalType": "bool",
          "name": "_fraudDetected",
          "type": "bool"
        }
      ],
      "name": "updateAIAssessment",
      "outputs": [],
      "stateMutability": "nonpayable",
      "type": "function"
    },
    {
      "inputs": [
        {
          "internalType": "address",
          "name": "",
          "type": "address"
        },
        {
          "internalType": "uint256",
          "name": "",
          "type": "uint256"
        }
      ],
      "name": "userClaims",
      "outputs": [
        {
          "internalType": "uint256",
          "name": "",
          "type": "uint256"
        }
      ],
      "stateMutability": "view",
      "type": "function"
    },
    {
      "inputs": [
        {
          "internalType": "address",
          "name": "",
          "type": "address"
        }
      ],
      "name": "validators",
      "outputs": [
        {
          "internalType": "bool",
          "name": "",
          "type": "bool"
        }
      ],
      "stateMutability": "view",
      "type": "function"
    }
  ],
  "bytecode": "0x60806040523480156200001157600080fd5b5060405162001bfa38038062001bfa8339810160408190526200003491620000ef565b806001600160a01b0381166200006457604051631e4fbdf760e01b81526000600482015260240160405180910390fd5b6200006f816200009f565b5060018080556001600160a01b039091166000908152600760205260409020805460ff1916909117905562000121565b600080546001600160a01b038381166001600160a01b0319831681178455604051919092169283917f8be0079c531659141344cd1fd0a4f28419497f9722a3daafe3b4186f6b6457e09190a35050565b6000602082840312156200010257600080fd5b81516001600160a01b03811681146200011a57600080fd5b9392505050565b611ac980620001316000396000f3fe60806040526004361061011f5760003560e01c8063a888c2cd116100a0578063efd7606511610064578063efd760651461037e578063f2fde38b146103be578063f34cf775146103de578063fa52c7d8146103f3578063fcc094261461042357600080fd5b8063a888c2cd146102bf578063c5e4fbec146102f5578063c905365f14610315578063ca9748ea1461034b578063e406f1d81461036b57600080fd5b80634d238c8e116100e75780634d238c8e1461022257806365c31a7d14610242578063715018a6146102625780637fbe658c146102775780638da5cb5b1461029757600080fd5b806322994f181461012457806326d7be40146101925780633577a5ad146101b457806340a141ff146101d457806347a187c9146101f4575b600080fd5b34801561013057600080fd5b5061016b61013f36600461144c565b600460208190526000918252604090912080546001820154600283015492909301549092919060ff1684565b60408051948552602085019390935291830152151560608201526080015b60405180910390f35b34801561019e57600080fd5b506101b26101ad366004611481565b610443565b005b3480156101c057600080fd5b506101b26101cf36600461155a565b61046f565b3480156101e057600080fd5b506101b26101ef366004611481565b610599565b34801561020057600080fd5b5061021461020f3660046115a1565b6105c2565b604051908152602001610189565b34801561022e57600080fd5b506101b261023d366004611481565b61089d565b34801561024e57600080fd5b5061021461025d366004611619565b6108c9565b34801561026e57600080fd5b506101b2610963565b34801561028357600080fd5b506101b2610292366004611643565b610977565b3480156102a357600080fd5b506000546040516001600160a01b039091168152602001610189565b3480156102cb57600080fd5b506102df6102da36600461144c565b610b14565b6040516101899a999897969594939291906116d5565b34801561030157600080fd5b506101b2610310366004611780565b610d1a565b34801561032157600080fd5b50610214610330366004611481565b6001600160a01b031660009081526005602052604090205490565b34801561035757600080fd5b50610214610366366004611619565b611007565b6101b261037936600461144c565b611038565b34801561038a57600080fd5b506103ae610399366004611481565b60066020526000908152604090205460ff1681565b6040519015158152602001610189565b3480156103ca57600080fd5b506101b26103d9366004611481565b611281565b3480156103ea57600080fd5b50600254610214565b3480156103ff57600080fd5b506103ae61040e366004611481565b60076020526000908152604090205460ff1681565b34801561042f57600080fd5b506101b261043e366004611481565b6112bf565b61044b6112e8565b6001600160a01b03166000908152600660205260409020805460ff19166001179055565b3360009081526007602052604090205460ff166104a75760405162461bcd60e51b815260040161049e90611879565b60405180910390fd5b6000828152600360205260408120548391036104d55760405162461bcd60e51b815260040161049e906118b0565b6001600084815260036020526040902060010154600160a81b900460ff16600481111561050457610504611665565b146105215760405162461bcd60e51b815260040161049e906118de565b600083815260036020526040902060018101805460ff60a81b1916600360a81b179055600701610551838261198f565b50336001600160a01b0316837f71ee21269e5c61792b6f2aeb010a5715d7e2cf350157468a3c68b3d16b3734978460405161058c9190611a4f565b60405180910390a3505050565b6105a16112e8565b6001600160a01b03166000908152600760205260409020805460ff19169055565b60006105cc6112e8565b6000831161060d5760405162461bcd60e51b815260206004820152600e60248201526d125b9d985b1a5908185b5bdd5b9d60921b604482015260640161049e565b60008251116106535760405162461bcd60e51b815260206004820152601260248201527112541194c81a185cda081c995c5d5a5c995960721b604482015260640161049e565b600086815260036020526040902054156106af5760405162461bcd60e51b815260206004820152601760248201527f436c61696d20494420616c726561647920657869737473000000000000000000604482015260640161049e565b604051806101400160405280878152602001866001600160a01b031681526020018560028111156106e2576106e2611665565b8152602001600081526020808201869052600060408084018290526060840187905280518084018252828152608085015260a084018290528051808401825282815260c0909401939093528981526003825282902083518155908301516001820180546001600160a01b039092166001600160a01b031983168117825593850151929390916001600160a81b03191617600160a01b83600281111561078957610789611665565b0217905550606082015160018201805460ff60a81b1916600160a81b8360048111156107b7576107b7611665565b02179055506080820151600282015560a0820151600382015560c082015160048201906107e4908261198f565b5060e082015160058201906107f9908261198f565b5061010082015160068201805460ff19169115159190911790556101208201516007820190610828908261198f565b5050506001600160a01b0385166000818152600560209081526040808320805460018101825590845291909220018890555187907f47277094ebef7aba139b2e7dd028e2736b95af06b3e0a0e9c5bd93e58a2adda49061088b9088908890611a62565b60405180910390a35093949350505050565b6108a56112e8565b6001600160a01b03166000908152600760205260409020805460ff19166001179055565b6001600160a01b03821660009081526005602052604081205482106109265760405162461bcd60e51b8152602060048201526013602482015272496e646578206f7574206f6620626f756e647360681b604482015260640161049e565b6001600160a01b038316600090815260056020526040902080548390811061095057610950611a7d565b9060005260206000200154905092915050565b61096b6112e8565b6109756000611315565b565b3360009081526007602052604090205460ff166109a65760405162461bcd60e51b815260040161049e90611879565b6000828152600360205260408120548391036109d45760405162461bcd60e51b815260040161049e906118b0565b6001600084815260036020526040902060010154600160a81b900460ff166004811115610a0357610a03611665565b14610a205760405162461bcd60e51b815260040161049e906118de565b60008211610a615760405162461bcd60e51b815260206004820152600e60248201526d125b9d985b1a5908185b5bdd5b9d60921b604482015260640161049e565b60008381526003602052604090206006015460ff1615610ab65760405162461bcd60e51b815260206004820152601060248201526f4672617564756c656e7420636c61696d60801b604482015260640161049e565b60008381526003602081815260409283902060018101805460ff60a81b1916600160a91b1790559091018490559051838152339185917f1fc82f3a90dd290838caa8cb6ac771f44ea2d2ceb27c530e6d101f9771772836910161058c565b60036020819052600091825260409091208054600182015460028301549383015460048401805493956001600160a01b0384169560ff600160a01b8604811696600160a81b90960416949193929091610b6c90611906565b80601f0160208091040260200160405190810160405280929190818152602001828054610b9890611906565b8015610be55780601f10610bba57610100808354040283529160200191610be5565b820191906000526020600020905b815481529060010190602001808311610bc857829003601f168201915b505050505090806005018054610bfa90611906565b80601f0160208091040260200160405190810160405280929190818152602001828054610c2690611906565b8015610c735780601f10610c4857610100808354040283529160200191610c73565b820191906000526020600020905b815481529060010190602001808311610c5657829003601f168201915b5050506006840154600785018054949560ff909216949193509150610c9790611906565b80601f0160208091040260200160405190810160405280929190818152602001828054610cc390611906565b8015610d105780601f10610ce557610100808354040283529160200191610d10565b820191906000526020600020905b815481529060010190602001808311610cf357829003601f168201915b505050505090508a565b3360009081526006602052604090205460ff16610d705760405162461bcd60e51b8152602060048201526014602482015273139bdd08185d5d1a1bdc9a5e9959081859d95b9d60621b604482015260640161049e565b600086815260036020526040812054879103610d9e5760405162461bcd60e51b815260040161049e906118b0565b60008088815260036020526040902060010154600160a81b900460ff166004811115610dcc57610dcc611665565b14610de95760405162461bcd60e51b815260040161049e906118de565b6040805160a081018252878152602080820188815282840188815260608401888152871515608086015260008d81526004855295909520845181559151600183015551600282015592518051929392610e48926003850192019061138f565b50608091909101516004909101805460ff191691151591909117905560405171697066733a2f2f6173736573736d656e742d60701b60208201526032810188905260520160408051601f19818403018152918152600089815260036020522060050190610eb5908261198f565b5081610ec2576001610ec5565b60035b6000888152600360205260409020600101805460ff60a81b1916600160a81b836004811115610ef657610ef6611665565b02179055508115610fc557600087815260036020818152604080842060068101805460ff191660011790558151808301909252601182527010524819195d1958dd195908199c985d59607a1b82840152938b9052919052600790910190610f5d908261198f565b50336001600160a01b0316877f71ee21269e5c61792b6f2aeb010a5715d7e2cf350157468a3c68b3d16b373497604051610fbc9060208082526011908201527010524819195d1958dd195908199c985d59607a1b604082015260600190565b60405180910390a35b6040518215158152339088907f44c8f9393deee133ef179e90ab13e476630d92147b643e76b34d56f5fc95bc799060200160405180910390a350505050505050565b6005602052816000526040600020818154811061102357600080fd5b90600052602060002001600091509150505481565b3360009081526007602052604090205460ff166110675760405162461bcd60e51b815260040161049e90611879565b6000818152600360205260408120548291036110955760405162461bcd60e51b815260040161049e906118b0565b61109d611365565b6002600083815260036020526040902060010154600160a81b900460ff1660048111156110cc576110cc611665565b1461110e5760405162461bcd60e51b815260206004820152601260248201527110db185a5b481b9bdd08185c1c1c9bdd995960721b604482015260640161049e565b6000828152600360208190526040909120015434146111625760405162461bcd60e51b815260206004820152601060248201526f125b98dbdc9c9958dd08185b5bdd5b9d60821b604482015260640161049e565b6000828152600360208190526040808320600181018054600160aa1b60ff60a81b1982161790915592015490516001600160a01b03909216918381818185875af1925050503d80600081146111d3576040519150601f19603f3d011682016040523d82523d6000602084013e6111d8565b606091505b505090508061121b5760405162461bcd60e51b815260206004820152600f60248201526e151c985b9cd9995c8819985a5b1959608a1b604482015260640161049e565b600083815260036020818152604092839020600181015492015492519283526001600160a01b039091169185917fb474181c176cbb45f643cf2031ecd2d42d9c7bcde5c70e04796f778b51bfee2b910160405180910390a35061127d60018055565b5050565b6112896112e8565b6001600160a01b0381166112b357604051631e4fbdf760e01b81526000600482015260240161049e565b6112bc81611315565b50565b6112c76112e8565b6001600160a01b03166000908152600660205260409020805460ff19169055565b6000546001600160a01b031633146109755760405163118cdaa760e01b815233600482015260240161049e565b600080546001600160a01b038381166001600160a01b0319831681178455604051919092169283917f8be0079c531659141344cd1fd0a4f28419497f9722a3daafe3b4186f6b6457e09190a35050565b60026001540361138857604051633ee5aeb560e01b815260040160405180910390fd5b6002600155565b8280548282559060005260206000209081019282156113d5579160200282015b828111156113d557825182906113c5908261198f565b50916020019190600101906113af565b506113e19291506113e5565b5090565b808211156113e15760006113f98282611402565b506001016113e5565b50805461140e90611906565b6000825580601f1061141e575050565b601f0160209004906000526020600020908101906112bc91905b808211156113e15760008155600101611438565b60006020828403121561145e57600080fd5b5035919050565b80356001600160a01b038116811461147c57600080fd5b919050565b60006020828403121561149357600080fd5b61149c82611465565b9392505050565b634e487b7160e01b600052604160045260246000fd5b604051601f8201601f1916810167ffffffffffffffff811182821017156114e2576114e26114a3565b604052919050565b600082601f8301126114fb57600080fd5b813567ffffffffffffffff811115611515576115156114a3565b611528601f8201601f19166020016114b9565b81815284602083860101111561153d57600080fd5b816020850160208301376000918101602001919091529392505050565b6000806040838503121561156d57600080fd5b82359150602083013567ffffffffffffffff81111561158b57600080fd5b611597858286016114ea565b9150509250929050565b600080600080600060a086880312156115b957600080fd5b853594506115c960208701611465565b93506040860135600381106115dd57600080fd5b925060608601359150608086013567ffffffffffffffff81111561160057600080fd5b61160c888289016114ea565b9150509295509295909350565b6000806040838503121561162c57600080fd5b61163583611465565b946020939093013593505050565b6000806040838503121561165657600080fd5b50508035926020909101359150565b634e487b7160e01b600052602160045260246000fd5b6003811061168b5761168b611665565b9052565b6000815180845260005b818110156116b557602081850181015186830182015201611699565b506000602082860101526020601f19601f83011685010191505092915050565b8a81526001600160a01b038a16602082015260006101406116f9604084018c61167b565b60058a1061170957611709611665565b8960608401528860808401528760a08401528060c084015261172d8184018861168f565b905082810360e0840152611741818761168f565b905084151561010084015282810361012084015261175f818561168f565b9d9c50505050505050505050505050565b8035801515811461147c57600080fd5b60008060008060008060c0878903121561179957600080fd5b8635955060208088013595506040880135945060608801359350608088013567ffffffffffffffff808211156117ce57600080fd5b818a0191508a601f8301126117e257600080fd5b8135818111156117f4576117f46114a3565b8060051b6118038582016114b9565b918252838101850191858101908e84111561181d57600080fd5b86860192505b8383101561185757848335111561183957600080fd5b6118488f8885358901016114ea565b82529186019190860190611823565b8098505050505050505061186d60a08801611770565b90509295509295509295565b60208082526018908201527f4e6f7420617574686f72697a65642076616c696461746f720000000000000000604082015260600190565b60208082526014908201527310db185a5b48191bd95cc81b9bdd08195e1a5cdd60621b604082015260600190565b6020808252600e908201526d496e76616c69642073746174757360901b604082015260600190565b600181811c9082168061191a57607f821691505b60208210810361193a57634e487b7160e01b600052602260045260246000fd5b50919050565b601f82111561198a57600081815260208120601f850160051c810160208610156119675750805b601f850160051c820191505b8181101561198657828155600101611973565b5050505b505050565b815167ffffffffffffffff8111156119a9576119a96114a3565b6119bd816119b78454611906565b84611940565b602080601f8311600181146119f257600084156119da5750858301515b600019600386901b1c1916600185901b178555611986565b600085815260208120601f198616915b82811015611a2157888601518255948401946001909101908401611a02565b5085821015611a3f5787850151600019600388901b60f8161c191681555b5050505050600190811b01905550565b60208152600061149c602083018461168f565b60408101611a70828561167b565b8260208301529392505050565b634e487b7160e01b600052603260045260246000fdfea2646970667358221220ae20b73d2da365860d679a4c57a812e4ec45386af8b4402dfa6f7982fb36b5fa64736f6c63430008140033",
  "linkReferences": {},
  "deployedLinkReferences": {}
}